{
  "_format": "hh-sol-artifact-1",
  "contractName": "MintingContract",
  "sourceName": "contracts/MintingContract.sol",
  "abi": [
    {
      "inputs": [
        {
          "internalType": "string",
          "name": "baseTokenURI",
          "type": "string"
        }
      ],
      "stateMutability": "nonpayable",
      "type": "constructor"
    },
    {
      "anonymous": false,
      "inputs": [
        {
          "indexed": true,
          "internalType": "address",
          "name": "owner",
          "type": "address"
        },
        {
          "indexed": true,
          "internalType": "address",
          "name": "approved",
          "type": "address"
        },
        {
          "indexed": true,
          "internalType": "uint256",
          "name": "tokenId",
          "type": "uint256"
        }
      ],
      "name": "Approval",
      "type": "event"
    },
    {
      "anonymous": false,
      "inputs": [
        {
          "indexed": true,
          "internalType": "address",
          "name": "owner",
          "type": "address"
        },
        {
          "indexed": true,
          "internalType": "address",
          "name": "operator",
          "type": "address"
        },
        {
          "indexed": false,
          "internalType": "bool",
          "name": "approved",
          "type": "bool"
        }
      ],
      "name": "ApprovalForAll",
      "type": "event"
    },
    {
      "anonymous": false,
      "inputs": [
        {
          "indexed": true,
          "internalType": "address",
          "name": "from",
          "type": "address"
        },
        {
          "indexed": true,
          "internalType": "address",
          "name": "to",
          "type": "address"
        },
        {
          "indexed": true,
          "internalType": "uint256",
          "name": "tokenId",
          "type": "uint256"
        }
      ],
      "name": "Transfer",
      "type": "event"
    },
    {
      "inputs": [
        {
          "internalType": "address",
          "name": "to",
          "type": "address"
        },
        {
          "internalType": "uint256",
          "name": "tokenId",
          "type": "uint256"
        }
      ],
      "name": "approve",
      "outputs": [],
      "stateMutability": "nonpayable",
      "type": "function"
    },
    {
      "inputs": [
        {
          "internalType": "address",
          "name": "owner",
          "type": "address"
        }
      ],
      "name": "balanceOf",
      "outputs": [
        {
          "internalType": "uint256",
          "name": "",
          "type": "uint256"
        }
      ],
      "stateMutability": "view",
      "type": "function"
    },
    {
      "inputs": [
        {
          "internalType": "uint256",
          "name": "tokenId",
          "type": "uint256"
        }
      ],
      "name": "getApproved",
      "outputs": [
        {
          "internalType": "address",
          "name": "",
          "type": "address"
        }
      ],
      "stateMutability": "view",
      "type": "function"
    },
    {
      "inputs": [
        {
          "internalType": "address",
          "name": "owner",
          "type": "address"
        },
        {
          "internalType": "address",
          "name": "operator",
          "type": "address"
        }
      ],
      "name": "isApprovedForAll",
      "outputs": [
        {
          "internalType": "bool",
          "name": "",
          "type": "bool"
        }
      ],
      "stateMutability": "view",
      "type": "function"
    },
    {
      "inputs": [],
      "name": "mintBasicNFT",
      "outputs": [],
      "stateMutability": "nonpayable",
      "type": "function"
    },
    {
      "inputs": [],
      "name": "name",
      "outputs": [
        {
          "internalType": "string",
          "name": "",
          "type": "string"
        }
      ],
      "stateMutability": "view",
      "type": "function"
    },
    {
      "inputs": [
        {
          "internalType": "uint256",
          "name": "tokenId",
          "type": "uint256"
        }
      ],
      "name": "ownerOf",
      "outputs": [
        {
          "internalType": "address",
          "name": "",
          "type": "address"
        }
      ],
      "stateMutability": "view",
      "type": "function"
    },
    {
      "inputs": [
        {
          "internalType": "address",
          "name": "from",
          "type": "address"
        },
        {
          "internalType": "address",
          "name": "to",
          "type": "address"
        },
        {
          "internalType": "uint256",
          "name": "tokenId",
          "type": "uint256"
        }
      ],
      "name": "safeTransferFrom",
      "outputs": [],
      "stateMutability": "nonpayable",
      "type": "function"
    },
    {
      "inputs": [
        {
          "internalType": "address",
          "name": "from",
          "type": "address"
        },
        {
          "internalType": "address",
          "name": "to",
          "type": "address"
        },
        {
          "internalType": "uint256",
          "name": "tokenId",
          "type": "uint256"
        },
        {
          "internalType": "bytes",
          "name": "_data",
          "type": "bytes"
        }
      ],
      "name": "safeTransferFrom",
      "outputs": [],
      "stateMutability": "nonpayable",
      "type": "function"
    },
    {
      "inputs": [
        {
          "internalType": "address",
          "name": "operator",
          "type": "address"
        },
        {
          "internalType": "bool",
          "name": "approved",
          "type": "bool"
        }
      ],
      "name": "setApprovalForAll",
      "outputs": [],
      "stateMutability": "nonpayable",
      "type": "function"
    },
    {
      "inputs": [
        {
          "internalType": "bytes4",
          "name": "interfaceId",
          "type": "bytes4"
        }
      ],
      "name": "supportsInterface",
      "outputs": [
        {
          "internalType": "bool",
          "name": "",
          "type": "bool"
        }
      ],
      "stateMutability": "view",
      "type": "function"
    },
    {
      "inputs": [],
      "name": "symbol",
      "outputs": [
        {
          "internalType": "string",
          "name": "",
          "type": "string"
        }
      ],
      "stateMutability": "view",
      "type": "function"
    },
    {
      "inputs": [],
      "name": "tokenCount",
      "outputs": [
        {
          "internalType": "uint256",
          "name": "",
          "type": "uint256"
        }
      ],
      "stateMutability": "view",
      "type": "function"
    },
    {
      "inputs": [
        {
          "internalType": "uint256",
          "name": "tokenId",
          "type": "uint256"
        }
      ],
      "name": "tokenURI",
      "outputs": [
        {
          "internalType": "string",
          "name": "",
          "type": "string"
        }
      ],
      "stateMutability": "view",
      "type": "function"
    },
    {
      "inputs": [
        {
          "internalType": "address",
          "name": "from",
          "type": "address"
        },
        {
          "internalType": "address",
          "name": "to",
          "type": "address"
        },
        {
          "internalType": "uint256",
          "name": "tokenId",
          "type": "uint256"
        }
      ],
      "name": "transferFrom",
      "outputs": [],
      "stateMutability": "nonpayable",
      "type": "function"
    }
  ],
  "bytecode": "0x608060405260006007553480156200001657600080fd5b506040516200330b3803806200330b83398181016040528101906200003c919062000335565b6040518060400160405280601581526020017f4a6f617861702e657468204361726420546f6b656e00000000000000000000008152506040518060400160405280600481526020017f4a4f4158000000000000000000000000000000000000000000000000000000008152508160009080519060200190620000c092919062000213565b508060019080519060200190620000d992919062000213565b5050508060089080519060200190620000f492919062000213565b50620001406040518060400160405280601c81526020017f4a6f617861702e65746820427573696e6573732043617264204e4654000000008152506200014760201b62000d0b1760201c565b506200056b565b620001e7816040516024016200015e9190620003bb565b6040516020818303038152906040527f41304fac000000000000000000000000000000000000000000000000000000007bffffffffffffffffffffffffffffffffffffffffffffffffffffffff19166020820180517bffffffffffffffffffffffffffffffffffffffffffffffffffffffff8381831617835250505050620001ea60201b60201c565b50565b60008151905060006a636f6e736f6c652e6c6f679050602083016000808483855afa5050505050565b828054620002219062000490565b90600052602060002090601f01602090048101928262000245576000855562000291565b82601f106200026057805160ff191683800117855562000291565b8280016001018555821562000291579182015b828111156200029057825182559160200191906001019062000273565b5b509050620002a09190620002a4565b5090565b5b80821115620002bf576000816000905550600101620002a5565b5090565b6000620002da620002d48462000408565b620003df565b905082815260208101848484011115620002f357600080fd5b620003008482856200045a565b509392505050565b600082601f8301126200031a57600080fd5b81516200032c848260208601620002c3565b91505092915050565b6000602082840312156200034857600080fd5b600082015167ffffffffffffffff8111156200036357600080fd5b620003718482850162000308565b91505092915050565b600062000387826200043e565b62000393818562000449565b9350620003a58185602086016200045a565b620003b0816200055a565b840191505092915050565b60006020820190508181036000830152620003d781846200037a565b905092915050565b6000620003eb620003fe565b9050620003f98282620004c6565b919050565b6000604051905090565b600067ffffffffffffffff8211156200042657620004256200052b565b5b62000431826200055a565b9050602081019050919050565b600081519050919050565b600082825260208201905092915050565b60005b838110156200047a5780820151818401526020810190506200045d565b838111156200048a576000848401525b50505050565b60006002820490506001821680620004a957607f821691505b60208210811415620004c057620004bf620004fc565b5b50919050565b620004d1826200055a565b810181811067ffffffffffffffff82111715620004f357620004f26200052b565b5b80604052505050565b7f4e487b7100000000000000000000000000000000000000000000000000000000600052602260045260246000fd5b7f4e487b7100000000000000000000000000000000000000000000000000000000600052604160045260246000fd5b6000601f19601f8301169050919050565b612d90806200057b6000396000f3fe608060405234801561001057600080fd5b50600436106100f55760003560e01c80636352211e11610097578063a22cb46511610066578063a22cb46514610272578063b88d4fde1461028e578063c87b56dd146102aa578063e985e9c5146102da576100f5565b80636352211e146101d657806370a082311461020657806395d89b41146102365780639f181b5e14610254576100f5565b8063095ea7b3116100d3578063095ea7b31461017857806312f0d6bd1461019457806323b872dd1461019e57806342842e0e146101ba576100f5565b806301ffc9a7146100fa57806306fdde031461012a578063081812fc14610148575b600080fd5b610114600480360381019061010f9190611d86565b61030a565b604051610121919061222f565b60405180910390f35b6101326103ec565b60405161013f919061224a565b60405180910390f35b610162600480360381019061015d9190611dd8565b61047e565b60405161016f91906121c8565b60405180910390f35b610192600480360381019061018d9190611d4a565b610503565b005b61019c61061b565b005b6101b860048036038101906101b39190611c44565b6106c0565b005b6101d460048036038101906101cf9190611c44565b610720565b005b6101f060048036038101906101eb9190611dd8565b610740565b6040516101fd91906121c8565b60405180910390f35b610220600480360381019061021b9190611bdf565b6107f2565b60405161022d919061249c565b60405180910390f35b61023e6108aa565b60405161024b919061224a565b60405180910390f35b61025c61093c565b604051610269919061249c565b60405180910390f35b61028c60048036038101906102879190611d0e565b610942565b005b6102a860048036038101906102a39190611c93565b610ac3565b005b6102c460048036038101906102bf9190611dd8565b610b25565b6040516102d1919061224a565b60405180910390f35b6102f460048036038101906102ef9190611c08565b610c77565b604051610301919061222f565b60405180910390f35b60007f80ac58cd000000000000000000000000000000000000000000000000000000007bffffffffffffffffffffffffffffffffffffffffffffffffffffffff1916827bffffffffffffffffffffffffffffffffffffffffffffffffffffffff191614806103d557507f5b5e139f000000000000000000000000000000000000000000000000000000007bffffffffffffffffffffffffffffffffffffffffffffffffffffffff1916827bffffffffffffffffffffffffffffffffffffffffffffffffffffffff1916145b806103e557506103e482610da4565b5b9050919050565b6060600080546103fb906126d6565b80601f0160208091040260200160405190810160405280929190818152602001828054610427906126d6565b80156104745780601f1061044957610100808354040283529160200191610474565b820191906000526020600020905b81548152906001019060200180831161045757829003601f168201915b5050505050905090565b600061048982610e0e565b6104c8576040517f08c379a00000000000000000000000000000000000000000000000000000000081526004016104bf906123fc565b60405180910390fd5b6004600083815260200190815260200160002060009054906101000a900473ffffffffffffffffffffffffffffffffffffffff169050919050565b600061050e82610740565b90508073ffffffffffffffffffffffffffffffffffffffff168373ffffffffffffffffffffffffffffffffffffffff16141561057f576040517f08c379a00000000000000000000000000000000000000000000000000000000081526004016105769061245c565b60405180910390fd5b8073ffffffffffffffffffffffffffffffffffffffff1661059e610e7a565b73ffffffffffffffffffffffffffffffffffffffff1614806105cd57506105cc816105c7610e7a565b610c77565b5b61060c576040517f08c379a00000000000000000000000000000000000000000000000000000000081526004016106039061233c565b60405180910390fd5b6106168383610e82565b505050565b6007600081548092919061062e90612739565b9190505550600060075490506000600861064783610f3b565b6040516020016106589291906121a4565b604051602081830303815290604052905061067333836110e8565b61067d8282611106565b6106bc6040518060400160405280600b81526020017f4d696e746564204e4654230000000000000000000000000000000000000000008152508361117a565b5050565b6106d16106cb610e7a565b82611216565b610710576040517f08c379a00000000000000000000000000000000000000000000000000000000081526004016107079061247c565b60405180910390fd5b61071b8383836112f4565b505050565b61073b83838360405180602001604052806000815250610ac3565b505050565b6000806002600084815260200190815260200160002060009054906101000a900473ffffffffffffffffffffffffffffffffffffffff169050600073ffffffffffffffffffffffffffffffffffffffff168173ffffffffffffffffffffffffffffffffffffffff1614156107e9576040517f08c379a00000000000000000000000000000000000000000000000000000000081526004016107e09061237c565b60405180910390fd5b80915050919050565b60008073ffffffffffffffffffffffffffffffffffffffff168273ffffffffffffffffffffffffffffffffffffffff161415610863576040517f08c379a000000000000000000000000000000000000000000000000000000000815260040161085a9061235c565b60405180910390fd5b600360008373ffffffffffffffffffffffffffffffffffffffff1673ffffffffffffffffffffffffffffffffffffffff168152602001908152602001600020549050919050565b6060600180546108b9906126d6565b80601f01602080910402602001604051908101604052809291908181526020018280546108e5906126d6565b80156109325780601f1061090757610100808354040283529160200191610932565b820191906000526020600020905b81548152906001019060200180831161091557829003601f168201915b5050505050905090565b60075481565b61094a610e7a565b73ffffffffffffffffffffffffffffffffffffffff168273ffffffffffffffffffffffffffffffffffffffff1614156109b8576040517f08c379a00000000000000000000000000000000000000000000000000000000081526004016109af906122fc565b60405180910390fd5b80600560006109c5610e7a565b73ffffffffffffffffffffffffffffffffffffffff1673ffffffffffffffffffffffffffffffffffffffff16815260200190815260200160002060008473ffffffffffffffffffffffffffffffffffffffff1673ffffffffffffffffffffffffffffffffffffffff16815260200190815260200160002060006101000a81548160ff0219169083151502179055508173ffffffffffffffffffffffffffffffffffffffff16610a72610e7a565b73ffffffffffffffffffffffffffffffffffffffff167f17307eab39ab6107e8899845ad3d59bd9653f200f220920489ca2b5937696c3183604051610ab7919061222f565b60405180910390a35050565b610ad4610ace610e7a565b83611216565b610b13576040517f08c379a0000000000000000000000000000000000000000000000000000000008152600401610b0a9061247c565b60405180910390fd5b610b1f84848484611550565b50505050565b6060610b3082610e0e565b610b6f576040517f08c379a0000000000000000000000000000000000000000000000000000000008152600401610b66906123dc565b60405180910390fd5b6000600660008481526020019081526020016000208054610b8f906126d6565b80601f0160208091040260200160405190810160405280929190818152602001828054610bbb906126d6565b8015610c085780601f10610bdd57610100808354040283529160200191610c08565b820191906000526020600020905b815481529060010190602001808311610beb57829003601f168201915b505050505090506000610c196115ac565b9050600081511415610c2f578192505050610c72565b600082511115610c64578082604051602001610c4c929190612180565b60405160208183030381529060405292505050610c72565b610c6d846115c3565b925050505b919050565b6000600560008473ffffffffffffffffffffffffffffffffffffffff1673ffffffffffffffffffffffffffffffffffffffff16815260200190815260200160002060008373ffffffffffffffffffffffffffffffffffffffff1673ffffffffffffffffffffffffffffffffffffffff16815260200190815260200160002060009054906101000a900460ff16905092915050565b610da181604051602401610d1f919061224a565b6040516020818303038152906040527f41304fac000000000000000000000000000000000000000000000000000000007bffffffffffffffffffffffffffffffffffffffffffffffffffffffff19166020820180517bffffffffffffffffffffffffffffffffffffffffffffffffffffffff838183161783525050505061166a565b50565b60007f01ffc9a7000000000000000000000000000000000000000000000000000000007bffffffffffffffffffffffffffffffffffffffffffffffffffffffff1916827bffffffffffffffffffffffffffffffffffffffffffffffffffffffff1916149050919050565b60008073ffffffffffffffffffffffffffffffffffffffff166002600084815260200190815260200160002060009054906101000a900473ffffffffffffffffffffffffffffffffffffffff1673ffffffffffffffffffffffffffffffffffffffff1614159050919050565b600033905090565b816004600083815260200190815260200160002060006101000a81548173ffffffffffffffffffffffffffffffffffffffff021916908373ffffffffffffffffffffffffffffffffffffffff160217905550808273ffffffffffffffffffffffffffffffffffffffff16610ef583610740565b73ffffffffffffffffffffffffffffffffffffffff167f8c5be1e5ebec7d5bd14f71427d1e84f3dd0314c0f7b2291e5b200ac8c7c3b92560405160405180910390a45050565b60606000821415610f83576040518060400160405280600181526020017f300000000000000000000000000000000000000000000000000000000000000081525090506110e3565b600082905060005b60008214610fb5578080610f9e90612739565b915050600a82610fae91906125bb565b9150610f8b565b60008167ffffffffffffffff811115610ff7577f4e487b7100000000000000000000000000000000000000000000000000000000600052604160045260246000fd5b6040519080825280601f01601f1916602001820160405280156110295781602001600182028036833780820191505090505b5090505b600085146110dc5760018261104291906125ec565b9150600a856110519190612782565b603061105d9190612565565b60f81b818381518110611099577f4e487b7100000000000000000000000000000000000000000000000000000000600052603260045260246000fd5b60200101907effffffffffffffffffffffffffffffffffffffffffffffffffffffffffffff1916908160001a905350600a856110d591906125bb565b945061102d565b8093505050505b919050565b611102828260405180602001604052806000815250611693565b5050565b61110f82610e0e565b61114e576040517f08c379a00000000000000000000000000000000000000000000000000000000081526004016111459061239c565b60405180910390fd5b80600660008481526020019081526020016000209080519060200190611175929190611a6b565b505050565b611212828260405160240161119092919061226c565b6040516020818303038152906040527f9710a9d0000000000000000000000000000000000000000000000000000000007bffffffffffffffffffffffffffffffffffffffffffffffffffffffff19166020820180517bffffffffffffffffffffffffffffffffffffffffffffffffffffffff838183161783525050505061166a565b5050565b600061122182610e0e565b611260576040517f08c379a00000000000000000000000000000000000000000000000000000000081526004016112579061231c565b60405180910390fd5b600061126b83610740565b90508073ffffffffffffffffffffffffffffffffffffffff168473ffffffffffffffffffffffffffffffffffffffff1614806112da57508373ffffffffffffffffffffffffffffffffffffffff166112c28461047e565b73ffffffffffffffffffffffffffffffffffffffff16145b806112eb57506112ea8185610c77565b5b91505092915050565b8273ffffffffffffffffffffffffffffffffffffffff1661131482610740565b73ffffffffffffffffffffffffffffffffffffffff161461136a576040517f08c379a00000000000000000000000000000000000000000000000000000000081526004016113619061241c565b60405180910390fd5b600073ffffffffffffffffffffffffffffffffffffffff168273ffffffffffffffffffffffffffffffffffffffff1614156113da576040517f08c379a00000000000000000000000000000000000000000000000000000000081526004016113d1906122dc565b60405180910390fd5b6113e58383836116ee565b6113f0600082610e82565b6001600360008573ffffffffffffffffffffffffffffffffffffffff1673ffffffffffffffffffffffffffffffffffffffff168152602001908152602001600020600082825461144091906125ec565b925050819055506001600360008473ffffffffffffffffffffffffffffffffffffffff1673ffffffffffffffffffffffffffffffffffffffff16815260200190815260200160002060008282546114979190612565565b92505081905550816002600083815260200190815260200160002060006101000a81548173ffffffffffffffffffffffffffffffffffffffff021916908373ffffffffffffffffffffffffffffffffffffffff160217905550808273ffffffffffffffffffffffffffffffffffffffff168473ffffffffffffffffffffffffffffffffffffffff167fddf252ad1be2c89b69c2b068fc378daa952ba7f163c4a11628f55a4df523b3ef60405160405180910390a4505050565b61155b8484846112f4565b611567848484846116f3565b6115a6576040517f08c379a000000000000000000000000000000000000000000000000000000000815260040161159d9061229c565b60405180910390fd5b50505050565b606060405180602001604052806000815250905090565b60606115ce82610e0e565b61160d576040517f08c379a00000000000000000000000000000000000000000000000000000000081526004016116049061243c565b60405180910390fd5b60006116176115ac565b905060008151116116375760405180602001604052806000815250611662565b8061164184610f3b565b604051602001611652929190612180565b6040516020818303038152906040525b915050919050565b60008151905060006a636f6e736f6c652e6c6f679050602083016000808483855afa5050505050565b61169d838361188a565b6116aa60008484846116f3565b6116e9576040517f08c379a00000000000000000000000000000000000000000000000000000000081526004016116e09061229c565b60405180910390fd5b505050565b505050565b60006117148473ffffffffffffffffffffffffffffffffffffffff16611a58565b1561187d578373ffffffffffffffffffffffffffffffffffffffff1663150b7a0261173d610e7a565b8786866040518563ffffffff1660e01b815260040161175f94939291906121e3565b602060405180830381600087803b15801561177957600080fd5b505af19250505080156117aa57506040513d601f19601f820116820180604052508101906117a79190611daf565b60015b61182d573d80600081146117da576040519150601f19603f3d011682016040523d82523d6000602084013e6117df565b606091505b50600081511415611825576040517f08c379a000000000000000000000000000000000000000000000000000000000815260040161181c9061229c565b60405180910390fd5b805181602001fd5b63150b7a0260e01b7bffffffffffffffffffffffffffffffffffffffffffffffffffffffff1916817bffffffffffffffffffffffffffffffffffffffffffffffffffffffff191614915050611882565b600190505b949350505050565b600073ffffffffffffffffffffffffffffffffffffffff168273ffffffffffffffffffffffffffffffffffffffff1614156118fa576040517f08c379a00000000000000000000000000000000000000000000000000000000081526004016118f1906123bc565b60405180910390fd5b61190381610e0e565b15611943576040517f08c379a000000000000000000000000000000000000000000000000000000000815260040161193a906122bc565b60405180910390fd5b61194f600083836116ee565b6001600360008473ffffffffffffffffffffffffffffffffffffffff1673ffffffffffffffffffffffffffffffffffffffff168152602001908152602001600020600082825461199f9190612565565b92505081905550816002600083815260200190815260200160002060006101000a81548173ffffffffffffffffffffffffffffffffffffffff021916908373ffffffffffffffffffffffffffffffffffffffff160217905550808273ffffffffffffffffffffffffffffffffffffffff16600073ffffffffffffffffffffffffffffffffffffffff167fddf252ad1be2c89b69c2b068fc378daa952ba7f163c4a11628f55a4df523b3ef60405160405180910390a45050565b600080823b905060008111915050919050565b828054611a77906126d6565b90600052602060002090601f016020900481019282611a995760008555611ae0565b82601f10611ab257805160ff1916838001178555611ae0565b82800160010185558215611ae0579182015b82811115611adf578251825591602001919060010190611ac4565b5b509050611aed9190611af1565b5090565b5b80821115611b0a576000816000905550600101611af2565b5090565b6000611b21611b1c846124dc565b6124b7565b905082815260208101848484011115611b3957600080fd5b611b44848285612694565b509392505050565b600081359050611b5b81612cfe565b92915050565b600081359050611b7081612d15565b92915050565b600081359050611b8581612d2c565b92915050565b600081519050611b9a81612d2c565b92915050565b600082601f830112611bb157600080fd5b8135611bc1848260208601611b0e565b91505092915050565b600081359050611bd981612d43565b92915050565b600060208284031215611bf157600080fd5b6000611bff84828501611b4c565b91505092915050565b60008060408385031215611c1b57600080fd5b6000611c2985828601611b4c565b9250506020611c3a85828601611b4c565b9150509250929050565b600080600060608486031215611c5957600080fd5b6000611c6786828701611b4c565b9350506020611c7886828701611b4c565b9250506040611c8986828701611bca565b9150509250925092565b60008060008060808587031215611ca957600080fd5b6000611cb787828801611b4c565b9450506020611cc887828801611b4c565b9350506040611cd987828801611bca565b925050606085013567ffffffffffffffff811115611cf657600080fd5b611d0287828801611ba0565b91505092959194509250565b60008060408385031215611d2157600080fd5b6000611d2f85828601611b4c565b9250506020611d4085828601611b61565b9150509250929050565b60008060408385031215611d5d57600080fd5b6000611d6b85828601611b4c565b9250506020611d7c85828601611bca565b9150509250929050565b600060208284031215611d9857600080fd5b6000611da684828501611b76565b91505092915050565b600060208284031215611dc157600080fd5b6000611dcf84828501611b8b565b91505092915050565b600060208284031215611dea57600080fd5b6000611df884828501611bca565b91505092915050565b611e0a81612620565b82525050565b611e1981612632565b82525050565b6000611e2a82612522565b611e348185612538565b9350611e448185602086016126a3565b611e4d8161286f565b840191505092915050565b6000611e638261252d565b611e6d8185612549565b9350611e7d8185602086016126a3565b611e868161286f565b840191505092915050565b6000611e9c8261252d565b611ea6818561255a565b9350611eb68185602086016126a3565b80840191505092915050565b60008154611ecf816126d6565b611ed9818661255a565b94506001821660008114611ef45760018114611f0557611f38565b60ff19831686528186019350611f38565b611f0e8561250d565b60005b83811015611f3057815481890152600182019150602081019050611f11565b838801955050505b50505092915050565b6000611f4e603283612549565b9150611f5982612880565b604082019050919050565b6000611f71601c83612549565b9150611f7c826128cf565b602082019050919050565b6000611f94602483612549565b9150611f9f826128f8565b604082019050919050565b6000611fb7601983612549565b9150611fc282612947565b602082019050919050565b6000611fda602c83612549565b9150611fe582612970565b604082019050919050565b6000611ffd603883612549565b9150612008826129bf565b604082019050919050565b6000612020602a83612549565b915061202b82612a0e565b604082019050919050565b6000612043602983612549565b915061204e82612a5d565b604082019050919050565b6000612066602e83612549565b915061207182612aac565b604082019050919050565b6000612089602083612549565b915061209482612afb565b602082019050919050565b60006120ac603183612549565b91506120b782612b24565b604082019050919050565b60006120cf602c83612549565b91506120da82612b73565b604082019050919050565b60006120f2602983612549565b91506120fd82612bc2565b604082019050919050565b6000612115602f83612549565b915061212082612c11565b604082019050919050565b6000612138602183612549565b915061214382612c60565b604082019050919050565b600061215b603183612549565b915061216682612caf565b604082019050919050565b61217a8161268a565b82525050565b600061218c8285611e91565b91506121988284611e91565b91508190509392505050565b60006121b08285611ec2565b91506121bc8284611e91565b91508190509392505050565b60006020820190506121dd6000830184611e01565b92915050565b60006080820190506121f86000830187611e01565b6122056020830186611e01565b6122126040830185612171565b81810360608301526122248184611e1f565b905095945050505050565b60006020820190506122446000830184611e10565b92915050565b600060208201905081810360008301526122648184611e58565b905092915050565b600060408201905081810360008301526122868185611e58565b90506122956020830184612171565b9392505050565b600060208201905081810360008301526122b581611f41565b9050919050565b600060208201905081810360008301526122d581611f64565b9050919050565b600060208201905081810360008301526122f581611f87565b9050919050565b6000602082019050818103600083015261231581611faa565b9050919050565b6000602082019050818103600083015261233581611fcd565b9050919050565b6000602082019050818103600083015261235581611ff0565b9050919050565b6000602082019050818103600083015261237581612013565b9050919050565b6000602082019050818103600083015261239581612036565b9050919050565b600060208201905081810360008301526123b581612059565b9050919050565b600060208201905081810360008301526123d58161207c565b9050919050565b600060208201905081810360008301526123f58161209f565b9050919050565b60006020820190508181036000830152612415816120c2565b9050919050565b60006020820190508181036000830152612435816120e5565b9050919050565b6000602082019050818103600083015261245581612108565b9050919050565b600060208201905081810360008301526124758161212b565b9050919050565b600060208201905081810360008301526124958161214e565b9050919050565b60006020820190506124b16000830184612171565b92915050565b60006124c16124d2565b90506124cd8282612708565b919050565b6000604051905090565b600067ffffffffffffffff8211156124f7576124f6612840565b5b6125008261286f565b9050602081019050919050565b60008190508160005260206000209050919050565b600081519050919050565b600081519050919050565b600082825260208201905092915050565b600082825260208201905092915050565b600081905092915050565b60006125708261268a565b915061257b8361268a565b9250827fffffffffffffffffffffffffffffffffffffffffffffffffffffffffffffffff038211156125b0576125af6127b3565b5b828201905092915050565b60006125c68261268a565b91506125d18361268a565b9250826125e1576125e06127e2565b5b828204905092915050565b60006125f78261268a565b91506126028361268a565b925082821015612615576126146127b3565b5b828203905092915050565b600061262b8261266a565b9050919050565b60008115159050919050565b60007fffffffff0000000000000000000000000000000000000000000000000000000082169050919050565b600073ffffffffffffffffffffffffffffffffffffffff82169050919050565b6000819050919050565b82818337600083830152505050565b60005b838110156126c15780820151818401526020810190506126a6565b838111156126d0576000848401525b50505050565b600060028204905060018216806126ee57607f821691505b6020821081141561270257612701612811565b5b50919050565b6127118261286f565b810181811067ffffffffffffffff821117156127305761272f612840565b5b80604052505050565b60006127448261268a565b91507fffffffffffffffffffffffffffffffffffffffffffffffffffffffffffffffff821415612777576127766127b3565b5b600182019050919050565b600061278d8261268a565b91506127988361268a565b9250826127a8576127a76127e2565b5b828206905092915050565b7f4e487b7100000000000000000000000000000000000000000000000000000000600052601160045260246000fd5b7f4e487b7100000000000000000000000000000000000000000000000000000000600052601260045260246000fd5b7f4e487b7100000000000000000000000000000000000000000000000000000000600052602260045260246000fd5b7f4e487b7100000000000000000000000000000000000000000000000000000000600052604160045260246000fd5b6000601f19601f8301169050919050565b7f4552433732313a207472616e7366657220746f206e6f6e20455243373231526560008201527f63656976657220696d706c656d656e7465720000000000000000000000000000602082015250565b7f4552433732313a20746f6b656e20616c7265616479206d696e74656400000000600082015250565b7f4552433732313a207472616e7366657220746f20746865207a65726f2061646460008201527f7265737300000000000000000000000000000000000000000000000000000000602082015250565b7f4552433732313a20617070726f766520746f2063616c6c657200000000000000600082015250565b7f4552433732313a206f70657261746f7220717565727920666f72206e6f6e657860008201527f697374656e7420746f6b656e0000000000000000000000000000000000000000602082015250565b7f4552433732313a20617070726f76652063616c6c6572206973206e6f74206f7760008201527f6e6572206e6f7220617070726f76656420666f7220616c6c0000000000000000602082015250565b7f4552433732313a2062616c616e636520717565727920666f7220746865207a6560008201527f726f206164647265737300000000000000000000000000000000000000000000602082015250565b7f4552433732313a206f776e657220717565727920666f72206e6f6e657869737460008201527f656e7420746f6b656e0000000000000000000000000000000000000000000000602082015250565b7f45524337323155524953746f726167653a2055524920736574206f66206e6f6e60008201527f6578697374656e7420746f6b656e000000000000000000000000000000000000602082015250565b7f4552433732313a206d696e7420746f20746865207a65726f2061646472657373600082015250565b7f45524337323155524953746f726167653a2055524920717565727920666f722060008201527f6e6f6e6578697374656e7420746f6b656e000000000000000000000000000000602082015250565b7f4552433732313a20617070726f76656420717565727920666f72206e6f6e657860008201527f697374656e7420746f6b656e0000000000000000000000000000000000000000602082015250565b7f4552433732313a207472616e73666572206f6620746f6b656e2074686174206960008201527f73206e6f74206f776e0000000000000000000000000000000000000000000000602082015250565b7f4552433732314d657461646174613a2055524920717565727920666f72206e6f60008201527f6e6578697374656e7420746f6b656e0000000000000000000000000000000000602082015250565b7f4552433732313a20617070726f76616c20746f2063757272656e74206f776e6560008201527f7200000000000000000000000000000000000000000000000000000000000000602082015250565b7f4552433732313a207472616e736665722063616c6c6572206973206e6f74206f60008201527f776e6572206e6f7220617070726f766564000000000000000000000000000000602082015250565b612d0781612620565b8114612d1257600080fd5b50565b612d1e81612632565b8114612d2957600080fd5b50565b612d358161263e565b8114612d4057600080fd5b50565b612d4c8161268a565b8114612d5757600080fd5b5056fea26469706673582212201a70f3e254cc885ec451413b2c9180ef5698c78275fe8e34a507c2ffc2a309fb64736f6c63430008040033",
  "linkReferences": {},
  "deployedLinkReferences": {}
}